{
  "contractName": "Healthcare",
  "abi": [
    {
      "inputs": [
        {
          "internalType": "address",
          "name": "_owner",
          "type": "address"
        },
        {
          "internalType": "string",
          "name": "_name",
          "type": "string"
        }
      ],
      "stateMutability": "nonpayable",
      "type": "constructor"
    },
    {
      "inputs": [],
      "name": "name",
      "outputs": [
        {
          "internalType": "string",
          "name": "",
          "type": "string"
        }
      ],
      "stateMutability": "view",
      "type": "function",
      "constant": true
    },
    {
      "inputs": [],
      "name": "owner",
      "outputs": [
        {
          "internalType": "address",
          "name": "",
          "type": "address"
        }
      ],
      "stateMutability": "view",
      "type": "function",
      "constant": true
    }
  ],
  "bytecode": "0x608060405234801561001057600080fd5b5060405161042538038061042583398101604081905261002f916100fe565b600080546001600160a01b0319166001600160a01b038416179055805161005d906001906020840190610065565b505050610233565b828054610071906101e2565b90600052602060002090601f01602090048101928261009357600085556100d9565b82601f106100ac57805160ff19168380011785556100d9565b828001600101855582156100d9579182015b828111156100d95782518255916020019190600101906100be565b506100e59291506100e9565b5090565b5b808211156100e557600081556001016100ea565b60008060408385031215610110578182fd5b82516001600160a01b0381168114610126578283fd5b602084810151919350906001600160401b0380821115610144578384fd5b818601915086601f830112610157578384fd5b8151818111156101695761016961021d565b604051601f8201601f191681018501838111828210171561018c5761018c61021d565b60405281815283820185018910156101a2578586fd5b8592505b818310156101c357838301850151818401860152918401916101a6565b818311156101d357858583830101525b80955050505050509250929050565b6002810460018216806101f657607f821691505b6020821081141561021757634e487b7160e01b600052602260045260246000fd5b50919050565b634e487b7160e01b600052604160045260246000fd5b6101e3806102426000396000f3fe608060405234801561001057600080fd5b50600436106100365760003560e01c806306fdde031461003b5780638da5cb5b14610059575b600080fd5b61004361006e565b604051610050919061011f565b60405180910390f35b6100616100fc565b604051610050919061010b565b6001805461007b90610172565b80601f01602080910402602001604051908101604052809291908181526020018280546100a790610172565b80156100f45780601f106100c9576101008083540402835291602001916100f4565b820191906000526020600020905b8154815290600101906020018083116100d757829003601f168201915b505050505081565b6000546001600160a01b031681565b6001600160a01b0391909116815260200190565b6000602080835283518082850152825b8181101561014b5785810183015185820160400152820161012f565b8181111561015c5783604083870101525b50601f01601f1916929092016040019392505050565b60028104600182168061018657607f821691505b602082108114156101a757634e487b7160e01b600052602260045260246000fd5b5091905056fea2646970667358221220d5194b79591bf3581bbffa7ba1496e725bfad35195d39d177a718af171e129e264736f6c63430008000033",
  "immutableReferences": {},
  "source": "// SPDX-License-Identifier: MIT\npragma solidity ^0.8.0;\n\ncontract Healthcare {\n\n    address public owner;\n    string public name;\n\n    // Constructor that takes two parameters\n    constructor(address _owner, string memory _name) {\n        owner = _owner;\n        name = _name;\n    }\n\n    // Add more functionality as needed...\n}\n\n",
  "sourcePath": "/Users/yughjuneja/healthcare-blockchain/contracts/Healthcare.sol",
  "compiler": {
    "name": "solc",
    "version": "0.8.0+commit.c7dfd78e.Emscripten.clang"
  },
  "schemaVersion": "3.4.16",
  "updatedAt": "2024-11-10T09:15:00.537Z",
  "networkType": "ethereum",
  "devdoc": {
    "kind": "dev",
    "methods": {},
    "version": 1
  },
  "userdoc": {
    "kind": "user",
    "methods": {},
    "version": 1
  }
}